{
  "_format": "hh-sol-artifact-1",
  "contractName": "TaskManager",
  "sourceName": "contracts/TaskManager.sol",
  "abi": [
    {
      "anonymous": false,
      "inputs": [
        {
          "indexed": true,
          "internalType": "uint256",
          "name": "taskId",
          "type": "uint256"
        },
        {
          "indexed": false,
          "internalType": "string",
          "name": "title",
          "type": "string"
        },
        {
          "indexed": false,
          "internalType": "address",
          "name": "assignee",
          "type": "address"
        },
        {
          "indexed": false,
          "internalType": "uint256",
          "name": "dueDate",
          "type": "uint256"
        }
      ],
      "name": "TaskCreated",
      "type": "event"
    },
    {
      "anonymous": false,
      "inputs": [
        {
          "indexed": true,
          "internalType": "uint256",
          "name": "taskId",
          "type": "uint256"
        },
        {
          "indexed": false,
          "internalType": "string",
          "name": "title",
          "type": "string"
        },
        {
          "indexed": false,
          "internalType": "address",
          "name": "assignee",
          "type": "address"
        },
        {
          "indexed": false,
          "internalType": "uint256",
          "name": "dueDate",
          "type": "uint256"
        }
      ],
      "name": "TaskUpdated",
      "type": "event"
    },
    {
      "inputs": [
        {
          "internalType": "string",
          "name": "title",
          "type": "string"
        },
        {
          "internalType": "address",
          "name": "assignee",
          "type": "address"
        },
        {
          "internalType": "uint256",
          "name": "dueDate",
          "type": "uint256"
        }
      ],
      "name": "createTask",
      "outputs": [],
      "stateMutability": "nonpayable",
      "type": "function"
    },
    {
      "inputs": [
        {
          "internalType": "uint256",
          "name": "taskId",
          "type": "uint256"
        }
      ],
      "name": "getTask",
      "outputs": [
        {
          "internalType": "string",
          "name": "",
          "type": "string"
        },
        {
          "internalType": "address",
          "name": "",
          "type": "address"
        },
        {
          "internalType": "uint256",
          "name": "",
          "type": "uint256"
        }
      ],
      "stateMutability": "view",
      "type": "function"
    },
    {
      "inputs": [],
      "name": "nextTaskId",
      "outputs": [
        {
          "internalType": "uint256",
          "name": "",
          "type": "uint256"
        }
      ],
      "stateMutability": "view",
      "type": "function"
    },
    {
      "inputs": [
        {
          "internalType": "uint256",
          "name": "",
          "type": "uint256"
        }
      ],
      "name": "tasks",
      "outputs": [
        {
          "internalType": "string",
          "name": "title",
          "type": "string"
        },
        {
          "internalType": "address",
          "name": "assignee",
          "type": "address"
        },
        {
          "internalType": "uint256",
          "name": "dueDate",
          "type": "uint256"
        }
      ],
      "stateMutability": "view",
      "type": "function"
    },
    {
      "inputs": [
        {
          "internalType": "uint256",
          "name": "_taskId",
          "type": "uint256"
        },
        {
          "internalType": "string",
          "name": "_title",
          "type": "string"
        },
        {
          "internalType": "address",
          "name": "_assignee",
          "type": "address"
        },
        {
          "internalType": "uint256",
          "name": "_dueDate",
          "type": "uint256"
        }
      ],
      "name": "updateTask",
      "outputs": [],
      "stateMutability": "nonpayable",
      "type": "function"
    }
  ],
  "bytecode": "0x60806040526000805534801561001457600080fd5b50610db1806100246000396000f3fe608060405234801561001057600080fd5b50600436106100575760003560e01c80631d65e77e1461005c5780638d9776721461008e57806399d0ecbd146100c0578063ccd50119146100dc578063fdc3d8d7146100f8575b600080fd5b610076600480360381019061007191906105e6565b610116565b604051610085939291906106f3565b60405180910390f35b6100a860048036038101906100a391906105e6565b61025b565b6040516100b7939291906106f3565b60405180910390f35b6100da60048036038101906100d59190610892565b61033d565b005b6100f660048036038101906100f19190610915565b610480565b005b610100610596565b60405161010d9190610984565b60405180910390f35b60606000806000600185815481106101315761013061099f565b5b906000526020600020906003020160405180606001604052908160008201805461015a906109fd565b80601f0160208091040260200160405190810160405280929190818152602001828054610186906109fd565b80156101d35780601f106101a8576101008083540402835291602001916101d3565b820191906000526020600020905b8154815290600101906020018083116101b657829003601f168201915b505050505081526020016001820160009054906101000a900473ffffffffffffffffffffffffffffffffffffffff1673ffffffffffffffffffffffffffffffffffffffff1673ffffffffffffffffffffffffffffffffffffffff1681526020016002820154815250509050806000015181602001518260400151935093509350509193909250565b6001818154811061026b57600080fd5b906000526020600020906003020160009150905080600001805461028e906109fd565b80601f01602080910402602001604051908101604052809291908181526020018280546102ba906109fd565b80156103075780601f106102dc57610100808354040283529160200191610307565b820191906000526020600020905b8154815290600101906020018083116102ea57829003601f168201915b5050505050908060010160009054906101000a900473ffffffffffffffffffffffffffffffffffffffff16908060020154905083565b6000548410610381576040517f08c379a000000000000000000000000000000000000000000000000000000000815260040161037890610a7a565b60405180910390fd5b60405180606001604052808481526020018373ffffffffffffffffffffffffffffffffffffffff16815260200182815250600185815481106103c6576103c561099f565b5b906000526020600020906003020160008201518160000190816103e99190610c46565b5060208201518160010160006101000a81548173ffffffffffffffffffffffffffffffffffffffff021916908373ffffffffffffffffffffffffffffffffffffffff16021790555060408201518160020155905050837fb42d0f177ee87f0b7d6867392c6e115b50e90a527f0fad9359fe47ae09ed68d8848484604051610472939291906106f3565b60405180910390a250505050565b600160405180606001604052808581526020018473ffffffffffffffffffffffffffffffffffffffff16815260200183815250908060018154018082558091505060019003906000526020600020906003020160009091909190915060008201518160000190816104f19190610c46565b5060208201518160010160006101000a81548173ffffffffffffffffffffffffffffffffffffffff021916908373ffffffffffffffffffffffffffffffffffffffff160217905550604082015181600201555050600180805490506105569190610d47565b7f4fd9515368c995a9e1ea8ad226f20427c8f4523a75c5b9481bdd7f358d8f666c848484604051610589939291906106f3565b60405180910390a2505050565b60005481565b6000604051905090565b600080fd5b600080fd5b6000819050919050565b6105c3816105b0565b81146105ce57600080fd5b50565b6000813590506105e0816105ba565b92915050565b6000602082840312156105fc576105fb6105a6565b5b600061060a848285016105d1565b91505092915050565b600081519050919050565b600082825260208201905092915050565b60005b8381101561064d578082015181840152602081019050610632565b60008484015250505050565b6000601f19601f8301169050919050565b600061067582610613565b61067f818561061e565b935061068f81856020860161062f565b61069881610659565b840191505092915050565b600073ffffffffffffffffffffffffffffffffffffffff82169050919050565b60006106ce826106a3565b9050919050565b6106de816106c3565b82525050565b6106ed816105b0565b82525050565b6000606082019050818103600083015261070d818661066a565b905061071c60208301856106d5565b61072960408301846106e4565b949350505050565b600080fd5b600080fd5b7f4e487b7100000000000000000000000000000000000000000000000000000000600052604160045260246000fd5b61077382610659565b810181811067ffffffffffffffff821117156107925761079161073b565b5b80604052505050565b60006107a561059c565b90506107b1828261076a565b919050565b600067ffffffffffffffff8211156107d1576107d061073b565b5b6107da82610659565b9050602081019050919050565b82818337600083830152505050565b6000610809610804846107b6565b61079b565b90508281526020810184848401111561082557610824610736565b5b6108308482856107e7565b509392505050565b600082601f83011261084d5761084c610731565b5b813561085d8482602086016107f6565b91505092915050565b61086f816106c3565b811461087a57600080fd5b50565b60008135905061088c81610866565b92915050565b600080600080608085870312156108ac576108ab6105a6565b5b60006108ba878288016105d1565b945050602085013567ffffffffffffffff8111156108db576108da6105ab565b5b6108e787828801610838565b93505060406108f88782880161087d565b9250506060610909878288016105d1565b91505092959194509250565b60008060006060848603121561092e5761092d6105a6565b5b600084013567ffffffffffffffff81111561094c5761094b6105ab565b5b61095886828701610838565b93505060206109698682870161087d565b925050604061097a868287016105d1565b9150509250925092565b600060208201905061099960008301846106e4565b92915050565b7f4e487b7100000000000000000000000000000000000000000000000000000000600052603260045260246000fd5b7f4e487b7100000000000000000000000000000000000000000000000000000000600052602260045260246000fd5b60006002820490506001821680610a1557607f821691505b602082108103610a2857610a276109ce565b5b50919050565b7f5461736b20646f6573206e6f7420657869737400000000000000000000000000600082015250565b6000610a6460138361061e565b9150610a6f82610a2e565b602082019050919050565b60006020820190508181036000830152610a9381610a57565b9050919050565b60008190508160005260206000209050919050565b60006020601f8301049050919050565b600082821b905092915050565b600060088302610afc7fffffffffffffffffffffffffffffffffffffffffffffffffffffffffffffffff82610abf565b610b068683610abf565b95508019841693508086168417925050509392505050565b6000819050919050565b6000610b43610b3e610b39846105b0565b610b1e565b6105b0565b9050919050565b6000819050919050565b610b5d83610b28565b610b71610b6982610b4a565b848454610acc565b825550505050565b600090565b610b86610b79565b610b91818484610b54565b505050565b5b81811015610bb557610baa600082610b7e565b600181019050610b97565b5050565b601f821115610bfa57610bcb81610a9a565b610bd484610aaf565b81016020851015610be3578190505b610bf7610bef85610aaf565b830182610b96565b50505b505050565b600082821c905092915050565b6000610c1d60001984600802610bff565b1980831691505092915050565b6000610c368383610c0c565b9150826002028217905092915050565b610c4f82610613565b67ffffffffffffffff811115610c6857610c6761073b565b5b610c7282546109fd565b610c7d828285610bb9565b600060209050601f831160018114610cb05760008415610c9e578287015190505b610ca88582610c2a565b865550610d10565b601f198416610cbe86610a9a565b60005b82811015610ce657848901518255600182019150602085019450602081019050610cc1565b86831015610d035784890151610cff601f891682610c0c565b8355505b6001600288020188555050505b505050505050565b7f4e487b7100000000000000000000000000000000000000000000000000000000600052601160045260246000fd5b6000610d52826105b0565b9150610d5d836105b0565b9250828203905081811115610d7557610d74610d18565b5b9291505056fea264697066735822122033941f7e2e5afe0aac256f4fdb0ba894994f1d3632c34c8d5bfd543b3bacee1664736f6c63430008120033",
  "linkReferences": {},
  "deployedLinkReferences": {}
}